:100000000C9434100C941D130C9453130C94511035
:100010000C9451100C9451100C9451100C945110DC
:100020000C9451100C9451100C9451100C945110CC
:100030000C9451100C9451100C9451100C945110BC
:100040000C9477140C9451100C94F2150C945110DC
:100050000C9451100C9451100C9451100C9451109C
:100060000C9451100C9451100000000055011D0219
:10007000AB0218037203BE0300043A046E049D042D
:10008000C704EF0413053505550573058F05AA054B
:10009000C305DB05F20508061D06310644065706B2
:1000A00069067A068B069B06AA06B906C806D60616
:1000B000E406F206FF060C071807240730073C0782
:1000C000470752075D07680772077C078607900796
:1000D0009907A307AC07B507BE07C707CF07D8071F
:1000E000E007E807F007F807000807080F081608F8
:1000F0001D0825082C0833083A08400847084E0810
:1001000054085B08610867086D0874087A0880085D
:1001100085088B08910897089C08A208A708AD08D5
:10012000B208B808BD08C208C708CC08D108D6086C
:10013000DB08E008E508EA08EF08F308F808FD081E
:10014000010906090A090F09130917091C092009E1
:10015000240929092D093109350939093D094109C0
:10016000450949094D095109550959095C096009B1
:10017000640968096B096F09730976097A097D09B1
:100180008109840988098B098F09920996099909BF
:100190009C09A009A309A609A909AD09B009B309D9
:1001A000B609B909BC09C009C309C609C909CC09FE
:1001B000CF09D209D509D809DB09DE09E109E3092C
:1001C000E609E909EC09EF09F209F409F709FA0966
:1001D000FD09FF09020A050A070A0A0A0D0A0F0AA1
:1001E000120A150A170A1A0A1C0A1F0A220A240AE6
:1001F000270A290A2C0A2E0A310A330A350A380A34
:100200003A0A3D0A3F0A410A440A460A490A4B0A89
:100210004D0A500A520A540A560A590A5B0A5D0AE4
:100220005F0A620A640A660A680A6B0A6D0A6F0A44
:10023000710A730A750A770A7A0A7C0A7E0A800AAA
:10024000820A840A860A880A8A0A8C0A8E0A900A16
:10025000920A940A960A980A9A0A9C0A9E0AA00A86
:10026000A20AA40AA60AA80AAA0AAC0AAE0AB00AF6
:10027000B20AB40AB50AB70AB90ABB0ABD0ABF0A6C
:10028000C10AC20AC40AC60AC80ACA0ACC0ACD0AE6
:10029000CF0AD10AD30AD40AD60AD80ADA0ADB0A64
:1002A000DD0ADF0AE10AE20AE40AE60AE70AE90AE5
:1002B000EB0AED0AEE0AF00AF20AF30AF50AF70A67
:1002C000F80AFA0AFB0AFD0AFF0A000B020B040BEC
:1002D000050B070B080B0A0B0B0B0D0B0F0B100B71
:1002E000120B130B150B160B180B190B1B0B1D0BFD
:1002F0001E0B200B210B230B240B260B270B290B8A
:100300002A0B2C0B2D0B2E0B300B310B330B340B1C
:10031000360B370B390B3A0B3C0B3D0B3E0B400BAE
:10032000410B430B440B450B470B480B4A0B4B0B44
:100330004C0B4E0B4F0B510B520B530B550B560BDB
:10034000570B590B5A0B5B0B5D0B5E0B5F0B610B75
:10035000620B630B650B660B670B690B6A0B6B0B10
:100360006D0B6E0B6F0B700B720B730B740B760BAC
:10037000770B780B790B7B0B7C0B7D0B7E0B800B4B
:10038000810B820B830B850B860B870B880B890BEC
:100390008B0B8C0B8D0B8E0B900B910B920B930B8D
:1003A000940B960B970B980B990B9A0B9B0B9D0B31
:1003B0009E0B9F0BA00BA10BA20BA40BA50BA60BD6
:1003C000A70BA80BA90BAB0BAC0BAD0BAE0BAF0B7C
:1003D000B00BB10BB20BB40BB50BB60BB70BB80B24
:1003E000B90BBA0BBB0BBC0BBE0BBF0BC00BC10BCD
:1003F000C20BC30BC40BC50BC60BC70BC80BCA0B78
:10040000CB0BCC0BCD0BCE0BCF0BD00BD10BD20B20
:10041000D30BD40BD50BD60BD70BD80BD90BDA0BD0
:10042000DB0BDC0BDE0BDF0BE00BE10BE20BE30B7A
:10043000E40BE50BE60BE70BE80BE90BEA0BEB0B28
:10044000EC0BED0BEE0BEF0BF00BF10BF20BF30BD8
:10045000F40BF50BF60BF70BF80BF90BFA0BFB0B88
:10046000FB0BFC0BFD0BFE0BFF0B000C010C020C3D
:10047000030C040C050C060C070C080C090C0A0CE8
:100480000B0C0C0C0D0C0E0C0E0C0F0C100C110C9C
:10049000120C130C140C150C160C170C180C190C50
:1004A0001A0C1A0C1B0C1C0C1D0C1E0C1F0C200C07
:1004B000210C220C230C230C240C250C260C270CBD
:1004C000280C290C2A0C2B0C2B0C2C0C2D0C2E0C74
:1004D0002F0C300C310C320C320C330C340C350C2C
:1004E000360C370C380C380C390C3A0C3B0C3C0CE5
:1004F0003D0C3E0C3E0C3F0C400C410C420C430C9E
:10050000430C440C450C460C470C480C480C490C59
:100510004A0C4B0C4C0C4D0C4D0C4E0C4F0C500C13
:10052000510C520C520C530C540C550C560C560CCE
:10053000570C580C590C5A0C5A0C5B0C5C0C5D0C8B
:100540005E0C5E0C5F0C600C610C620C620C630C48
:10055000640C650C650C660C670C680C690C690C06
:100560006A0C6B0C6C0C6C0C6D0C6E0C6F0C700CC4
:10057000700C710C720C730C730C740C750C760C83
:10058000760C770C780C790C790C7A0C7B0C7C0C43
:100590007C0C7D0C7E0C7F0C7F0C800C810C820C03
:1005A000820C830C840C840C850C860C870C870CC5
:1005B000880C890C8A0C8A0C8B0C8C0C8C0C8D0C86
:1005C0008E0C8F0C8F0C900C910C920C920C930C47
:1005D000940C940C950C960C960C970C980C990C0A
:1005E000990C9A0C9B0C9B0C9C0C9D0C9E0C9E0CCD
:1005F0009F0CA00CA00CA10CA20CA20CA30CA40C90
:10060000A40CA50CA60CA70CA70CA80CA90CA90C53
:10061000AA0CAB0CAB0CAC0CAD0CAD0CAE0CAF0C17
:10062000AF0CB00CB10CB10CB20CB30CB30CB40CDD
:10063000B50CB50CB60CB70CB70CB80CB90CB90CA2
:10064000BA0CBB0CBB0CBC0CBD0CBD0CBE0CBF0C67
:10065000BF0CC00CC10CC10CC20CC20CC30CC40C2E
:10066000C40CC50CC60CC60CC70CC80CC80CC90CF5
:10067000CA0CCA0CCB0CCB0CCC0CCD0CCD0CCE0CBC
:10068000CF0CCF0CD00CD00CD10CD20CD20CD30C84
:10069000D40CD40CD50CD50CD60CD70CD70CD80C4C
:1006A000D90CD90CDA0CDA0CDB0CDC0CDC0CDD0C14
:1006B000DE0CDE0CDF0CDF0CE00CE10CE10CE20CDC
:1006C000E20CE30CE40CE40CE50CE50CE60CE70CA6
:1006D000E70CE80CE80CE90CEA0CEA0CEB0CEB0C70
:1006E000EC0CED0CED0CEE0CEE0CEF0CF00CF00C39
:1006F000F10CF10CF20CF20CF30CF40CF40CF50C04
:10070000F50CF60CF70CF70CF80CF80CF90CF90CCE
:10071000FA0CFB0CFB0CFC0CFC0CFD0CFE0CFE0C98
:10072000FF0CFF0C000D000D010D020D020D030D5D
:10073000030D040D040D050D050D060D070D070D28
:10074000080D080D090D090D0A0D0B0D0B0D0C0DF3
:100750000C0D0D0D0D0D0E0D0E0D0F0D100D100DC0
:10076000110D110D120D120D130D130D140D150D8C
:10077000150D160D160D170D170D180D180D190D59
:10078000190D1A0D1A0D1B0D1C0D1C0D1D0D1D0D27
:100790001E0D1E0D1F0D1F0D200D200D210D210DF5
:1007A000220D230D230D240D240D250D250D260DC1
:1007B000260D270D270D280D280D290D290D2A0D91
:1007C0002A0D2B0D2C0D2C0D2D0D2D0D2E0D2E0D5E
:1007D0002F0D2F0D300D300D310D310D320D320D2D
:1007E000330D330D340D340D350D350D360D360DFD
:1007F000370D370D380D380D390D390D3A0D3A0DCD
:100800003B0D3B0D3C0D3C0D3D0D3D0D3E0D3E0D9C
:100810003F0D3F0D400D400D410D410D420D420D6C
:10082000430D430D440D440D450D450D460D460D3C
:10083000470D470D480D480D490D490D4A0D4A0D0C
:100840004B0D4B0D4C0D4C0D4D0D4D0D4E0D4E0DDC
:100850004F0D4F0D500D500D510D510D520D520DAC
:10086000530D530D540D540D550D550D560D560D7C
:10087000570D570D570D580D580D590D590D5A0D4F
:100880005A0D5B0D5B0D5C0D5C0D5D0D5D0D5E0D20
:100890005E0D5F0D5F0D600D600D600D610D610DF2
:1008A000620D620D630D630D640D640D650D650DC4
:1008B000660D660D670D670D670D680D680D690D96
:1008C000690D6A0D6A0D6B0D6B0D6C0D6C0D6D0D68
:1008D0006D0D6D0D6E0D6E0D6F0D6F0D700D700D3C
:1008E000710D710D720D720D720D730D730D740D0E
:1008F000740D750D750D760D760D770D770D770DE1
:10090000780D780D790D790D7A0D7A0D7B0D7B0DB3
:100910007B0D7C0D7C0D7D0D7D0D7E0D7E0D7F0D87
:100920007F0D7F0D800D800D810D810D820D820D5B
:10093000820D830D830D840D840D850D850D860D2F
:10094000860D860D870D870D880D880D890D890D03
:10095000890D8A0D8A0D8B0D8B0D8C0D8C0D8C0DD8
:100960008D0D8D0D8E0D8E0D8F0D8F0D8F0D900DAC
:10097000900D910D910D920D920D920D930D930D81
:10098000940D940D950D950D950D960D960D970D55
:10099000970D970D980D980D990D990D9A0D9A0D2B
:1009A0009A0D9B0D9B0D9C0D9C0D9C0D9D0D9D0D01
:1009B0009E0D9E0D9F0D9F0D9F0DA00DA00DA10DD5
:1009C000A10DA10DA20DA20DA30DA30DA40DA40DAB
:1009D000A40DA50DA50DA60DA60DA60DA70DA70D81
:1009E000A80DA80DA80DA90DA90DAA0DAA0DAA0D57
:1009F000AB0DAB0DAC0DAC0DAC0DAD0DAD0DAE0D2D
:100A0000AE0DAE0DAF0DAF0DB00DB00DB00DB10D03
:100A1000B10DB20DB20DB20DB30DB30DB40DB40DD9
:100A2000B40DB50DB50DB60DB60DB60DB70DB70DB0
:100A3000B80DB80DB80DB90DB90DBA0DBA0DBA0D86
:100A4000BB0DBB0DBB0DBC0DBC0DBD0DBD0DBD0D5E
:100A5000BE0DBE0DBF0DBF0DBF0DC00DC00DC10D34
:100A6000C10DC10DC20DC20DC20DC30DC30DC40D0C
:100A7000C40DC40DC50DC50DC60DC60DC60DC70DE3
:100A8000C70DC70DC80DC80DC90DC90DC90DCA0DBB
:100A9000CA0DCA0DCB0DCB0DCC0DCC0DCC0DCD0D93
:100AA000CD0DCD0DCE0DCE0DCF0DCF0DCF0DD00D6B
:100AB000D00DD00DD10DD10DD20DD20DD20DD30D43
:100AC000D30DD30DD40DD40DD50DD50DD50DD60D1B
:100AD000D60DD60DD70DD70DD80DD80DD80DD90DF3
:100AE000D90DD90DDA0DDA0DDA0DDB0DDB0DDC0DCC
:100AF000DC0DDC0DDD0DDD0DDD0DDE0DDE0DDE0DA5
:100B0000DF0DDF0DE00DE00DE00DE10DE10DE10D7C
:100B1000E20DE20DE20DE30DE30DE40DE40DE40D55
:100B2000E50DE50DE50DE60DE60DE60DE70DE70D2E
:100B3000E70DE80DE80DE90DE90DE90DEA0DEA0D07
:100B4000EA0DEB0DEB0DEB0DEC0DEC0DEC0DED0DE1
:100B5000ED0DEE0DEE0DEE0DEF0DEF0DEF0DF00DB9
:100B6000F00DF00DF10DF10DF10DF20DF20DF20D94
:100B7000F30DF30DF30DF40DF40DF50DF50DF50D6D
:100B8000F60DF60DF60DF70DF70DF70DF80DF80D46
:100B9000F80DF90DF90DF90DFA0DFA0DFA0DFB0D21
:100BA000FB0DFB0DFC0DFC0DFC0DFD0DFD0DFD0DFC
:100BB000FE0DFE0DFE0DFF0DFF0D000E000E000ED2
:100BC000010E010E010E020E020E020E030E030EA6
:100BD000030E040E040E040E050E050E050E060E81
:100BE000060E060E070E070E070E080E080E080E5C
:100BF000090E090E090E0A0E0A0E0A0E0B0E0B0E36
:100C00000B0E0C0E0C0E0C0E0D0E0D0E0D0E0E0E10
:100C10000E0E0E0E0F0E0F0E0F0E100E100E100EEB
:100C2000110E110E110E120E120E120E130E130EC5
:100C3000130E130E140E140E140E150E150E150EA3
:100C4000160E160E160E170E170E170E180E180E7D
:100C5000180E190E190E190E1A0E1A0E1A0E1B0E58
:100C60001B0E1B0E1C0E1C0E1C0E1D0E1D0E1D0E33
:100C70001E0E1E0E1E0E1E0E1F0E1F0E1F0E200E0F
:100C8000200E200E210E210E210E220E220E220EEB
:100C9000230E230E230E240E240E240E240E250EC6
:100CA000250E250E260E260E260E270E270E270EA3
:100CB000280E280E280E290E290E290E2A0E2A0E7D
:100CC0002A0E2A0E2B0E2B0E2B0E2C0E2C0E2C0E5B
:100CD0002D0E2D0E2D0E2E0E2E0E2E0E2E0E2F0E36
:100CE0002F0E2F0E300E300E300E310E310E310E13
:100CF000320E320E320E320E330E330E330E340EEF
:100D0000340E340E350E350E350E360E360E360ECA
:100D1000360E370E370E370E380E380E380E390EA7
:100D2000390E390E390E3A0E3A0E3A0E3B0E3B0E84
:100D30003B0E3C0E3C0E3C0E3C0E3D0E3D0E3D0E61
:100D40003E0E3E0E3E0E3F0E3F0E3F0E3F0E400E3D
:100D5000400E400E410E410E410E420E420E420E1A
:100D6000420E430E430E430E440E440E440E450EF7
:100D7000450E450E450E460E460E460E470E470ED4
:100D8000470E470E480E480E480E490E490E490EB2
:100D90004A0E4A0E4A0E4A0E4B0E4B0E4B0E4C0E8E
:100DA0004C0E4C0E4C0E4D0E4D0E4D0E4E0E4E0E6C
:100DB0004E0E4E0E4F0E4F0E4F0E500E500E500E4A
:100DC000500E510E510E510E520E520E520E520E28
:100DD000530E530E530E540E540E540E550E550E04
:100DE000550E550E560E560E560E560E570E570EE3
:100DF000570E580E580E580E580E590E590E590EC1
:100E00005A0E5A0E5A0E5A0E5B0E5B0E5B0E5C0E9D
:100E10005C0E5C0E5C0E5D0E5D0E5D0E5E0E5E0E7B
:100E20005E0E5E0E5F0E5F0E5F0E600E600E600E59
:100E3000600E610E610E610E610E620E620E620E38
:100E4000630E630E630E630E640E640E640E650E15
:100E5000650E650E650E660E660E660E660E670EF4
:100E6000670E670E680E680E680E680E690E690ED2
:100E7000690E690E6A0E6A0E6A0E6B0E6B0E6B0EB1
:100E80006B0E6C0E6C0E6C0E6C0E6D0E6D0E6D0E90
:100E90006E0E6E0E6E0E6E0E6F0E6F0E6F0E6F0E6E
:100EA000700E700E700E710E710E710E710E720E4C
:100EB000720E720E720E730E730E730E740E740E2B
:100EC000740E740E750E750E750E750E760E760E0A
:100ED000760E760E770E770E770E780E780E780EE9
:100EE000780E790E790E790E790E7A0E7A0E7A0EC8
:100EF0007A0E7B0E7B0E7B0E7C0E7C0E7C0E7C0EA7
:100F00007D0E7D0E7D0E7D0E7E0E7E0E7E0E7E0E85
:100F10007F0E7F0E7F0E7F0E800E800E800E810E64
:100F2000810E810E810E820E820E820E820E830E43
:100F3000830E830E830E840E840E840E840E850E23
:100F4000850E850E850E860E860E860E860E870E03
:100F5000870E870E880E880E880E880E890E890EE1
:100F6000890E890E8A0E8A0E8A0E8A0E8B0E8B0EC1
:100F70008B0E8B0E8C0E8C0E8C0E8C0E8D0E8D0EA1
:100F80008D0E8D0E8E0E8E0E8E0E8E0E8F0E8F0E81
:100F90008F0E8F0E900E900E900E900E910E910E61
:100FA000910E910E920E920E920E920E930E930E41
:100FB000930E930E940E940E940E940E950E950E21
:100FC000950E950E960E960E960E960E970E970E01
:100FD000970E970E980E980E980E980E990E990EE1
:100FE000990E990E9A0E9A0E9A0E9A0E9B0E9B0EC1
:100FF0009B0E9B0E9C0E9C0E9C0E9C0E9D0E9D0EA1
:101000009D0E9D0E9E0E9E0E9E0E9E0E9F0E9F0E80
:101010009F0E9F0EA00EA00EA00EA00EA10EA10E60
:10102000A10EA10EA20EA20EA20EA20EA30EA30E40
:10103000A30EA30EA40EA40EA40EA40EA50EA50E20
:10104000A50EA50EA60EA60EA60EA60EA60EA70E01
:10105000A70EA70EA70EA80EA80EA80EA80EA90EE2
:10106000A90EA90EA90EAA0EAA0EAA0EAA0EAB0EC2
:10107000AB0EAB0EAB0EAC0EAC0EAC0EAC0EAC0EA3
:10108000AD0EAD0EAD0EAD0EAE0EAE0EAE0EAE0E84
:10109000AF0EAF0EAF0EAF0EB00EB00EB00EB00E64
:1010A000B10EB10EB10EB10EB10EB20EB20EB20E45
:1010B000B20EB30EB30EB30EB30EB40EB40EB40E26
:1010C000B40EB50EB50EB50EB50EB60EB60EB60E06
:1010D000B60EB60EB70EB70EB70EB70EB80EB80EE8
:1010E000B80EB80EB90EB90EB90EB90EB90EBA0EC9
:1010F000BA0EBA0EBA0EBB0EBB0EBB0EBB0EBC0EAA
:10110000BC0EBC0EBC0EBC0EBD0EBD0EBD0EBD0E8B
:10111000BE0EBE0EBE0EBE0EBF0EBF0EBF0EBF0E6B
:10112000BF0EC00EC00EC00EC00EC10EC10EC10E4D
:10113000C10EC20EC20EC20EC20EC20EC30EC30E2E
:10114000C30EC30EC40EC40EC40EC40EC50EC50E0F
:10115000C50EC50EC50EC60EC60EC60EC60EC70EF1
:10116000C70EC70EC70EC70EC80EC80EC80EC80ED3
:10117000C90EC90EC90EC90ECA0ECA0ECA0ECA0EB3
:10118000CA0ECB0ECB0ECB0ECB0ECC0ECC0ECC0E95
:10119000CC0ECC0ECD0ECD0ECD0ECD0ECE0ECE0E77
:1011A000CE0ECE0ECE0ECF0ECF0ECF0ECF0ED00E59
:1011B000D00ED00ED00ED00ED10ED10ED10ED10E3B
:1011C000D20ED20ED20ED20ED20ED30ED30ED30E1C
:1011D000D30ED40ED40ED40ED40ED40ED50ED50EFE
:1011E000D50ED50ED60ED60ED60ED60ED60ED70EE0
:1011F000D70ED70ED70ED80ED80ED80ED80ED80EC2
:10120000D90ED90ED90ED90ED90EDA0EDA0EDA0EA3
:10121000DA0EDB0EDB0EDB0EDB0EDB0EDC0EDC0E85
:10122000DC0EDC0EDD0EDD0EDD0EDD0EDD0EDE0E67
:10123000DE0EDE0EDE0EDE0EDF0EDF0EDF0EDF0E4A
:10124000E00EE00EE00EE00EE00EE10EE10EE10E2B
:10125000E10EE10EE20EE20EE20EE20EE30EE30E0E
:10126000E30EE30EE30EE40EE40EE40EE40EE40EF1
:10127000E50EE50EE50EE50EE60EE60EE60EE60ED2
:10128000E60EE70EE70EE70EE70EE70EE80EE80EB5
:10129000E80EE80EE90EE90EE90EE90EE90EEA0E97
:1012A000EA0EEA0EEA0EEA0EEB0EEB0EEB0EEB0E7A
:1012B000EB0EEC0EEC0EEC0EEC0EED0EED0EED0E5C
:1012C000ED0EED0EEE0EEE0EEE0EEE0EEE0EEF0E3F
:1012D000EF0EEF0EEF0EEF0EF00EF00EF00EF00E22
:1012E000F10EF10EF10EF10EF10EF20EF20EF20E03
:1012F000F20EF20EF30EF30EF30EF30EF30EF40EE7
:10130000F40EF40EF40EF40EF50EF50EF50EF50EC9
:10131000F50EF60EF60EF60EF60EF70EF70EF70EAB
:10132000F70EF70EF80EF80EF80EF80EF80EF90E8E
:10133000F90EF90EF90EF90EFA0EFA0EFA0EFA0E71
:10134000FA0EFB0EFB0EFB0EFB0EFB0EFC0EFC0E54
:10135000FC0EFC0EFC0EFD0EFD0EFD0EFD0EFD0E38
:10136000FE0EFE0EFE0EFE0EFE0EFF0EFF0EFF0E1A
:10137000FF0EFF0E000F000F000F000F000F010FF8
:10138000010F010F010F010F020F020F020F020FD9
:10139000030F030F030F030F030F040F040F040FBA
:1013A000040F040F050F050F050F050F050F060F9E
:1013B000060F060F060F060F060F070F070F070F82
:1013C000070F070F080F080F080F080F080F090F66
:1013D000090F090F090F090F0A0F0A0F0A0F0A0F49
:1013E0000A0F0B0F0B0F0B0F0B0F0B0F0C0F0C0F2C
:1013F0000C0F0C0F0C0F0D0F0D0F0D0F0D0F0D0F10
:101400000E0F0E0F0E0F0E0F0E0F0F0F0F0F0F0FF1
:101410000F0F0F0F100F100F100F100F100F110FD5
:10142000110F110F110F110F120F120F120F120FB8
:10143000120F130F130F130F130F130F130F140F9C
:10144000140F140F140F140F150F150F150F150F80
:10145000150F160F160F160F160F160F170F170F63
:10146000170F170F170F180F180F180F180F180F47
:10147000180F190F190F190F190F190F1A0F1A0F2B
:101480001A0F1A0F1A0F1B0F1B0F1B0F1B0F1B0F0F
:101490001C0F1C0F1C0F1C0F1C0F1D0F1D0F1D0FF1
:1014A0001D0F1D0F1D0F1E0F1E0F1E0F1E0F1E0FD7
:1014B0001F0F1F0F1F0F1F0F1F0F200F200F200FB9
:1014C000200F200F200F210F210F210F210F210F9F
:1014D000220F220F220F220F220F230F230F230F81
:1014E000230F230F240F240F240F240F240F240F66
:1014F000250F250F250F250F250F260F260F260F49
:10150000260F260F260F270F270F270F270F270F2E
:10151000280F280F280F280F280F290F290F290F10
:10152000290F290F290F2A0F2A0F2A0F2A0F2A0FF6
:101530002B0F2B0F2B0F2B0F2B0F2C0F2C0F2C0FD8
:101540002C0F2C0F2C0F2D0F2D0F2D0F2D0F2D0FBE
:101550002E0F2E0F2E0F2E0F2E0F2E0F2F0F2F0FA1
:101560002F0F2F0F2F0F300F300F300F300F300F86
:10157000300F310F310F310F310F310F320F320F6A
:10158000320F320F320F320F330F330F330F330F4F
:10159000330F340F340F340F340F340F340F350F33
:1015A000350F350F350F350F360F360F360F360F17
:1015B000360F360F370F370F370F370F370F380FFC
:1015C000380F380F380F380F380F390F390F390FE0
:1015D000390F390F3A0F3A0F3A0F3A0F3A0F3A0FC5
:1015E0003B0F3B0F3B0F3B0F3B0F3C0F3C0F3C0FA8
:1015F0003C0F3C0F3C0F3D0F3D0F3D0F3D0F3D0F8E
:101600003D0F3E0F3E0F3E0F3E0F3E0F3F0F3F0F71
:101610003F0F3F0F3F0F3F0F400F400F400F400F56
:10162000400F400F410F410F410F410F410F420F3B
:10163000420F420F420F420F420F430F430F430F1F
:10164000430F430F430F440F440F440F440F440F05
:10165000450F450F450F450F450F450F460F460FE8
:10166000460F460F460F460F470F470F470F470FCE
:10167000470F480F480F480F480F480F480F490FB2
:10168000490F490F490F490F490F4A0F4A0F4A0F97
:101690004A0F4A0F4A0F4B0F4B0F4B0F4B0F4B0F7D
:1016A0004C0F4C0F4C0F4C0F4C0F4C0F4D0F4D0F60
:1016B0004D0F4D0F4D0F4D0F4E0F4E0F4E0F4E0F46
:1016C0004E0F4E0F4F0F4F0F4F0F4F0F4F0F4F0F2C
:1016D000500F500F500F500F500F510F510F510F0F
:1016E000510F510F510F520F520F520F520F520FF5
:1016F000520F530F530F530F530F530F530F540FDA
:10170000540F540F540F540F540F550F550F550FBE
:10171000550F550F550F560F560F560F560F560FA4
:10172000560F570F570F570F570F570F570F580F89
:10173000580F580F580F580F590F590F590F590F6D
:10174000590F590F5A0F5A0F5A0F5A0F5A0F5A0F53
:101750005B0F5B0F5B0F5B0F5B0F5B0F5C0F5C0F37
:101760005C0F5C0F5C0F5C0F5D0F5D0F5D0F5D0F1D
:101770005D0F5D0F5E0F5E0F5E0F5E0F5E0F5E0F03
:101780005F0F5F0F5F0F5F0F5F0F5F0F600F600FE7
:10179000600F600F600F600F610F610F610F610FCD
:1017A000610F610F620F620F620F620F620F620FB3
:1017B000630F630F630F630F630F630F640F640F97
:1017C000640F640F640F640F640F650F650F650F7E
:1017D000650F650F650F660F660F660F660F660F64
:1017E000660F670F670F670F670F670F670F680F49
:1017F000680F680F680F680F680F690F690F690F2E
:10180000690F690F690F6A0F6A0F6A0F6A0F6A0F13
:101810006A0F6B0F6B0F6B0F6B0F6B0F6B0F6C0FF8
:101820006C0F6C0F6C0F6C0F6C0F6C0F6D0F6D0FDE
:101830006D0F6D0F6D0F6D0F6E0F6E0F6E0F6E0FC4
:101840006E0F6E0F6F0F6F0F6F0F6F0F6F0F6F0FAA
:10185000700F700F700F700F700F700F710F710F8E
:10186000710F710F710F710F710F720F720F720F75
:10187000720F720F720F730F730F730F730F730F5B
:10188000730F740F740F740F740F740F740F750F40
:10189000750F750F750F750F750F750F760F760F26
:1018A000760F760F760F760F770F770F770F770F0C
:1018B000770F770F780F780F780F780F780F780FF2
:1018C000780F790F790F790F790F790F790F7A0FD8
:1018D0007A0F7A0F7A0F7A0F7A0F7B0F7B0F7B0FBD
:1018E0007B0F7B0F7B0F7B0F7C0F7C0F7C0F7C0FA4
:1018F0007C0F7C0F7D0F7D0F7D0F7D0F7D0F7D0F8A
:101900007E0F7E0F7E0F7E0F7E0F7E0F7E0F7F0F6E
:101910007F0F7F0F7F0F7F0F7F0F800F800F800F54
:10192000800F800F800F800F810F810F810F810F3B
:10193000810F810F820F820F820F820F820F820F21
:10194000820F830F830F830F830F830F830F840F07
:10195000840F840F840F840F840F850F850F850FEC
:10196000850F850F850F850F860F860F860F860FD3
:10197000860F860F870F870F870F870F870F870FB9
:10198000870F880F880F880F880F880F880F880FA0
:10199000890F890F890F890F890F890F8A0F8A0F85
:1019A0008A0F8A0F8A0F8A0F8A0F8B0F8B0F8B0F6C
:1019B0008B0F8B0F8B0F8C0F8C0F8C0F8C0F8C0F52
:1019C0008C0F8C0F8D0F8D0F8D0F8D0F8D0F8D0F39
:1019D0008E0F8E0F8E0F8E0F8E0F8E0F8E0F8F0F1E
:1019E0008F0F8F0F8F0F8F0F8F0F8F0F900F900F05
:1019F000900F900F900F900F910F910F910F910FEB
:101A0000910F910F910F920F920F920F920F920FD1
:101A1000920F920F930F930F930F930F930F930FB8
:101A2000940F940F940F940F940F940F940F950F9D
:101A3000950F950F950F950F950F950F960F960F84
:101A4000960F960F960F960F970F970F970F970F6A
:101A5000970F970F970F980F980F980F980F980F51
:101A6000980F980F990F990F990F990F990F990F38
:101A7000990F9A0F9A0F9A0F9A0F9A0F9A0F9B0F1E
:101A80009B0F9B0F9B0F9B0F9B0F9B0F9C0F9C0F04
:101A90009C0F9C0F9C0F9C0F9C0F9D0F9D0F9D0FEB
:101AA0009D0F9D0F9D0F9D0F9E0F9E0F9E0F9E0FD2
:101AB0009E0F9E0F9E0F9F0F9F0F9F0F9F0F9F0FB9
:101AC0009F0FA00FA00FA00FA00FA00FA00FA00F9F
:101AD000A10FA10FA10FA10FA10FA10FA10FA20F85
:101AE000A20FA20FA20FA20FA20FA20FA30FA30F6C
:101AF000A30FA30FA30FA30FA30FA40FA40FA40F53
:101B0000A40FA40FA40FA40FA50FA50FA50FA50F39
:101B1000A50FA50FA50FA60FA60FA60FA60FA60F20
:101B2000A60FA60FA70FA70FA70FA70FA70FA70F07
:101B3000A70FA80FA80FA80FA80FA80FA80FA80FEE
:101B4000A90FA90FA90FA90FA90FA90FA90FAA0FD4
:101B5000AA0FAA0FAA0FAA0FAA0FAA0FAB0FAB0FBB
:101B6000AB0FAB0FAB0FAB0FAB0FAC0FAC0FAC0FA2
:101B7000AC0FAC0FAC0FAC0FAD0FAD0FAD0FAD0F89
:101B8000AD0FAD0FAD0FAE0FAE0FAE0FAE0FAE0F70
:101B9000AE0FAE0FAF0FAF0FAF0FAF0FAF0FAF0F57
:101BA000AF0FB00FB00FB00FB00FB00FB00FB00F3E
:101BB000B10FB10FB10FB10FB10FB10FB10FB20F24
:101BC000B20FB20FB20FB20FB20FB20FB30FB30F0B
:101BD000B30FB30FB30FB30FB30FB40FB40FB40FF2
:101BE000B40FB40FB40FB40FB50FB50FB50FB50FD9
:101BF000B50FB50FB50FB50FB60FB60FB60FB60FC1
:101C0000B60FB60FB60FB70FB70FB70FB70FB70FA7
:101C1000B70FB70FB80FB80FB80FB80FB80FB80F8E
:101C2000B80FB90FB90FB90FB90FB90FB90FB90F75
:101C3000BA0FBA0FBA0FBA0FBA0FBA0FBA0FBA0F5C
:101C4000BB0FBB0FBB0FBB0FBB0FBB0FBB0FBC0F43
:101C5000BC0FBC0FBC0FBC0FBC0FBC0FBD0FBD0F2A
:101C6000BD0FBD0FBD0FBD0FBD0FBE0FBE0FBE0F11
:101C7000BE0FBE0FBE0FBE0FBE0FBF0FBF0FBF0FF9
:101C8000BF0FBF0FBF0FBF0FC00FC00FC00FC00FE0
:101C9000C00FC00FC00FC10FC10FC10FC10FC10FC7
:101CA000C10FC10FC10FC20FC20FC20FC20FC20FAF
:101CB000C20FC20FC30FC30FC30FC30FC30FC30F96
:101CC000C30FC40FC40FC40FC40FC40FC40FC40F7D
:101CD000C40FC50FC50FC50FC50FC50FC50FC50F65
:101CE000C60FC60FC60FC60FC60FC60FC60FC60F4C
:101CF000C70FC70FC70FC70FC70FC70FC70FC80F33
:101D0000C80FC80FC80FC80FC80FC80FC90FC90F19
:101D1000C90FC90FC90FC90FC90FC90FCA0FCA0F01
:101D2000CA0FCA0FCA0FCA0FCA0FCB0FCB0FCB0FE8
:101D3000CB0FCB0FCB0FCB0FCB0FCC0FCC0FCC0FD0
:101D4000CC0FCC0FCC0FCC0FCD0FCD0FCD0FCD0FB7
:101D5000CD0FCD0FCD0FCD0FCE0FCE0FCE0FCE0F9F
:101D6000CE0FCE0FCE0FCF0FCF0FCF0FCF0FCF0F86
:101D7000CF0FCF0FCF0FD00FD00FD00FD00FD00F6E
:101D8000D00FD00FD10FD10FD10FD10FD10FD10F55
:101D9000D10FD10FD20FD20FD20FD20FD20FD20F3D
:101DA000D20FD20FD30FD30FD30FD30FD30FD30F25
:101DB000D30FD40FD40FD40FD40FD40FD40FD40F0C
:101DC000D40FD50FD50FD50FD50FD50FD50FD50FF4
:101DD000D60FD60FD60FD60FD60FD60FD60FD60FDB
:101DE000D70FD70FD70FD70FD70FD70FD70FD70FC3
:101DF000D80FD80FD80FD80FD80FD80FD80FD90FAA
:101E0000D90FD90FD90FD90FD90FD90FD90FDA0F91
:101E1000DA0FDA0FDA0FDA0FDA0FDA0FDA0FDB0F79
:101E2000DB0FDB0FDB0FDB0FDB0FDB0FDB0FDC0F61
:101E3000DC0FDC0FDC0FDC0FDC0FDC0FDD0FDD0F48
:101E4000DD0FDD0FDD0FDD0FDD0FDD0FDE0FDE0F30
:101E5000DE0FDE0FDE0FDE0FDE0FDE0FDF0FDF0F18
:101E6000DF0FDF0FDF0FDF0FDF0FDF0FE00FE00F00
:101E7000E00FE00FE00FE00FE00FE00FE10FE10FE8
:101E8000E10FE10FE10FE10FE10FE20FE20FE20FCF
:101E9000E20FE20FE20FE20FE20FE30FE30FE30FB7
:101EA000E30FE30FE30FE30FE30FE40FE40FE40F9F
:101EB000E40FE40FE40FE40FE40FE50FE50FE50F87
:101EC000E50FE50FE50FE50FE50FE60FE60FE60F6F
:101ED000E60FE60FE60FE60FE60FE70FE70FE70F57
:101EE000E70FE70FE70FE70FE70FE80FE80FE80F3F
:101EF000E80FE80FE80FE80FE80FE90FE90FE90F27
:101F0000E90FE90FE90FE90FE90FEA0FEA0FEA0F0E
:101F1000EA0FEA0FEA0FEA0FEB0FEB0FEB0FEB0FF5
:101F2000EB0FEB0FEB0FEB0FEC0FEC0FEC0FEC0FDD
:101F3000EC0FEC0FEC0FEC0FED0FED0FED0FED0FC5
:101F4000ED0FED0FED0FED0FEE0FEE0FEE0FEE0FAD
:101F5000EE0FEE0FEE0FEE0FEE0FEF0FEF0FEF0F96
:101F6000EF0FEF0FEF0FEF0FEF0FF00FF00FF00F7E
:101F7000F00FF00FF00FF00FF00FF10FF10FF10F66
:101F8000F10FF10FF10FF10FF10FF20FF20FF20F4E
:101F9000F20FF20FF20FF20FF20FF30FF30FF30F36
:101FA000F30FF30FF30FF30FF30FF40FF40FF40F1E
:101FB000F40FF40FF40FF40FF40FF50FF50FF50F06
:101FC000F50FF50FF50FF50FF50FF60FF60FF60FEE
:101FD000F60FF60FF60FF60FF60FF70FF70FF70FD6
:101FE000F70FF70FF70FF70FF70FF70FF80FF80FBF
:101FF000F80FF80FF80FF80FF80FF80FF90FF90FA7
:10200000F90FF90FF90FF90FF90FF90FFA0FFA0F8E
:10201000FA0FFA0FFA0FFA0FFA0FFA0FFB0FFB0F76
:10202000FB0FFB0FFB0FFB0FFB0FFB0FFC0FFC0F5E
:10203000FC0FFC0FFC0FFC0FFC0FFC0FFC0FFD0F47
:10204000FD0FFD0FFD0FFD0FFD0FFD0FFE0FFE0F2E
:10205000FE0FFE0FFE0FFE0FFE0FFF0FFF0FFF0F15
:10206000FF0FFF0FFF0FFF0F11241FBECFEFD8E0B0
:10207000DEBFCDBF11E0A0E0B1E0EAE9F3E702C0C6
:1020800005900D92A430B107D9F721E0A4E0B1E0AA
:1020900001C01D92AC33B207E1F70E9499160C946F
:1020A000CB390C940000681718F0681B862F089530
:1020B000861B0895EF92FF920F931F932617370701
:1020C0004807590768F079018A01E61AF70A080BF0
:1020D000190BC801B7011F910F91FF90EF90089560
:1020E000621B730B840B950B1F910F91FF90EF9068
:1020F000089584B1886284B9229A2A9A249880E546
:102100008CBD81E08DBD80E090E00C943E1684B1E2
:10211000886284B9229A2A9A249880E58CBD81E04D
:102120008DBD80E090E00E943E168AB180668AB93B
:1021300052985A9854985C9853985B983B98439A55
:102140003C9A57985F9A5098389A219A3D984598AA
:102150000895823020F08B3020F487E0089588E0E5
:1021600008958B3110F486E008958F3210F485E0E5
:102170000895823410F484E00895863510F483E0E5
:102180000895853610F482E00895873710F00C9496
:102190007F1681E008950F931F938A019B01883079
:1021A00009F447C0873009F455C0863009F467C088
:1021B000853059F1843009F473C0833009F47BC051
:1021C000823009F483C0813089F18F3F79F18E3FED
:1021D00009F48EC08D3F09F492C08C3F09F49AC077
:1021E0008B3F09F4A2C08A3F09F477C0893F09F404
:1021F000A7C0883FD9F4CB01BA0123E09695879513
:10220000779567952A95D1F70EC0CB01BA01660F75
:10221000771F881F991F660F771F881F991F600FF0
:10222000711F821F931F1F910F910895C901B8015B
:10223000FACFCB01BA01660F771F881F991F660F6F
:10224000771F881F991F660F771F881F991F1F917F
:102250000F910895CB01BA01660F771F881F991F50
:10226000660F771F881F991F660F771F881F991F9A
:10227000601B710B820B930B1F910F910895CB0183
:10228000BA01660F771F881F991F600F711F821F89
:10229000931F660F771F881F991F1F910F91089535
:1022A000CB01BA01660F771F881F991F660F771F32
:1022B000881F991FB8CFCB01BA01660F771F881FFF
:1022C000991F600F711F821F931FADCFCB01BA0101
:1022D000660F771F881F991FA6CFCB01BA0126E092
:1022E00030E040E050E00E94C538CA01B9019BCF00
:1022F000CB01BA01969587957795679594CFCB01D9
:10230000BA0123E030E040E050E00E94C538CA0145
:10231000B90189CFCB01BA019695879577956795D5
:1023200096958795779567957ECFCB01BA0125E085
:1023300030E040E050E00E94C538CA01B90173CFD7
:10234000CB01BA0127E030E040E050E00E94C53800
:10235000CA01B90168CF8F929F92AF92BF92CF927C
:10236000DF92EF92FF920F931F93E82F6A017B0198
:1023700080910501882331F04C342DE1520761052D
:10238000710588F4E11136C060E073E080E090E010
:102390001F910F91FF90EF90DF90CF90BF90AF9083
:1023A0009F908F9008958AE98E0F8D3008F476C043
:1023B000452F562F672F7727AE2FB0E09A01AB013C
:1023C0000E94E73868392AE372078105910520F4F5
:1023D00068E97AE380E090E028E9C21A2AE3D20AA9
:1023E000E108F108C616D706E806F90688F6C7011F
:1023F000B601CECFE13009F44CC0E23009F455C04B
:10240000EA3108F457C0EC3D08F07BC0E93C08F421
:102410007EC077276F2D5E2D4D2D4601570181E03F
:10242000981AA108B108AE2FB0E09A01AB010E9442
:10243000E7388B019C0186169706A806B90610F4AA
:1024400095018401E095EE9FC0011124002496952A
:1024500087950794969587950794982F802DAA279E
:1024600097FDA095BA2F88169906AA06BB0670F0AC
:1024700046015701881A990AAA0ABB0AC501B40184
:1024800080169106A206B30608F082CFC901B801F2
:102490007FCF60E074E080E090E07ACFC701B601C2
:1024A000969587957795679573CF60E075E080E0A6
:1024B00090E06ECF55274F2D3E2D2D2DAE2FB0E045
:1024C0000E94E738EE9F600111242FE0C20ED11C5C
:1024D0000024D694C7940794D694C7940794DC2C10
:1024E000C02CEE24D7FCE094FE2C611525E0720789
:1024F0008105910508F076CF60E075E080E090E01E
:1025000071CFC701B60171508109910941CF8AE9A4
:102510008E0F8D3018F255274F2D3E2D2D2DAE2FBD
:10252000B0E00E94E73834CFFC01EE0FFF1FE859FE
:10253000FF4FA591B491EFEFFFE0E81BF90BEE0F11
:10254000FF1FE859FF4F259134916430A9F068309E
:10255000C9F04FEF5FE0421B530B662381F06130FF
:10256000A1F0623021F1633051F16530D1F1663074
:1025700009F447C0673099F19C01C90108959A0197
:10258000C90108959D01C90108959A0136952795BD
:1025900036952795AC0155954795959587959595D1
:1025A0008795480F591F240F351FC90108959A01B7
:1025B0003695279595958795280F391FE1CF9A0174
:1025C000369527955695479556954795240F351F6F
:1025D0009595879595958795280F391FD1CF9D01A2
:1025E000D5CF9D0136952795B695A795B695A79514
:1025F0002A0F3B1F9595879595958795280F391F2D
:10260000BFCF9D013695279595958795280F391F42
:10261000B7CF87B1887F87B988B1887F88B9EAE763
:10262000F0E080E8808380E280937C008081876096
:10263000808380818064808308951F920F920FB6FB
:102640000F9211242F938F939F93AF93BF934A9B25
:1026500020C080912C0190912D01A0912E01B0916C
:102660002F0126B5BA2FA92F982F8827822B809368
:10267000150190931601A0931701B09318011092C1
:102680002C0110922D0110922E0110922F01109208
:102690000E01BF91AF919F918F912F910F900FBE1F
:1026A0000F901F9018951F920F920FB60F92112442
:1026B0008F939F93AF93BF934B990BC010920F01D1
:1026C000BF91AF919F918F910F900FBE0F901F9070
:1026D000189581E090E0A0E0B0E080931101909324
:1026E0001201A0931301B09314018093020180930F
:1026F000100180930F01E4CF85E08093690083E0AF
:102700008DBB10926D0010926C00089583B18170A2
:1027100080930401089580910C01811108955E98C1
:1027200081E080930C010C94871580910B0181113D
:1027300008955D9881E080930B010C94921580912F
:10274000070181110CC080911C0190911D01A09185
:102750001E01B0911F018697A105B10518F41092D2
:102760000C0108955E9A0E94871510920C0108953D
:102770008091060181110CC080912801909129015E
:10278000A0912A01B0912B018697A105B10518F4FB
:1027900010920B0108955D9A0E94921510920B0100
:1027A000089580910801811103C080910C0181116D
:1027B00008955E9881E080930C010C9487158091B8
:1027C0000801811108958091070181110CC0809149
:1027D0001C0190911D01A0911E01B0911F018697CF
:1027E000A105B10518F410920C0108955E9A0E949B
:1027F0008715F9CF80910A01811103C080910B01E7
:10280000811108955D9881E080930B010C949215DD
:1028100080910A01811108958091060181110CC0F7
:102820008091280190912901A0912A01B0912B015A
:102830008697A105B10518F410920B0108955D9AD1
:102840000E949215F9CF80910801882319F0809198
:102850000C01811108955E9881E080930C010C9425
:10286000871580910801811101C0089580910701A9
:1028700081110CC080911C0190911D01A0911E013D
:10288000B0911F018697A105B10518F410920C01B3
:1028900008955E9A0E948715F9CF80910A018823D6
:1028A00019F080910B01811108955D9881E080936A
:1028B0000B010C94921580910A01811101C00895B9
:1028C0008091060181110CC080912801909129010D
:1028D000A0912A01B0912B018697A105B10518F4AA
:1028E00010920B0108955D9A0E949215F9CF1F92E4
:1028F0000F920FB60F9211248F939F93AF93BF93B4
:102900008091200190912101A0912201B091230199
:102910000196A11DB11D8093200190932101A093E8
:102920002201B09323018091240190912501A0916F
:102930002601B09127010196A11DB11D80932401AC
:1029400090932501A0932601B093270180912C013B
:1029500090912D01A0912E01B0912F010196A11D02
:10296000B11D80932C0190932D01A0932E01B09363
:102970002F018091300190913101A0913201B091ED
:1029800033010196A11DB11D809330019093310157
:10299000A0933201B093330180911C0190911D01ED
:1029A000A0911E01B0911F010196A11DB11D809340
:1029B0001C0190931D01A0931E01B0931F018091F3
:1029C000280190912901A0912A01B0912B01019633
:1029D000A11DB11D8093280190932901A0932A0184
:1029E000B0932B0116BC80910D018F5F80930D0178
:1029F000BF91AF919F918F910F900FBE0F901F903D
:102A00001895F8948091200190912101A0912201C4
:102A1000B091230126B578946627782F892F9A2FB5
:102A2000622B0895F8948091240190912501A09142
:102A30002601B091270126B578946627782F892F33
:102A40009A2F622B0895F89480912C0190912D017A
:102A5000A0912E01B0912F0126B578946627782F8A
:102A6000892F9A2F622B0895F894809130019091CC
:102A70003101A0913201B091330126B578946627D7
:102A8000782F892F9A2F622B0895F89460911C015A
:102A900070911D0180911E0190911F0178940895FD
:102AA000F894609128017091290180912A019091F8
:102AB0002B0178940895F89410922001109221012E
:102AC000109222011092230178940895F8941092A4
:102AD000240110922501109226011092270178946A
:102AE0000895F89410922C0110922D0110922E014D
:102AF00010922F0178940895F8941092300110925A
:102B00003101109232011092330178940895F894B3
:102B100010921C0110921D0110921E0110921F01B3
:102B200078940895F8941092280110922901109237
:102B30002A0110922B017894089583E084BD82E0ED
:102B400085BD16BCEEE6F0E0808181608083109246
:102B50003001109231011092320110923301109223
:102B60002C0110922D0110922E0110922F01109223
:102B70002001109221011092220110922301109243
:102B800024011092250110922601109227017894B9
:102B900008959093C5008093C4001092C00080E90E
:102BA0008093C10086E08093C200519850980895A8
:102BB0009091C00095FFFCCF8093C6000895E1EC92
:102BC000F0E0808188608083519A08958091C000F0
:102BD00086FFFCCF8091C100877F8093C100519810
:102BE000599808951F920F920FB60F9211242F93A8
:102BF0003F938F939F93EF93FF933091C6009091F3
:102C0000C000E0911A0181E08E0F893008F080E069
:102C100020911B01281749F0292F2C7189F4F0E02D
:102C2000EC5CFE4F308380931A01FF91EF919F91EE
:102C30008F913F912F910F900FBE0F901F9018957D
:102C400090931901F2CFE0911B0120911A01E21734
:102C500099F0F0E0EC5CFE4F2081FC012083809134
:102C60001B018F5F893020F010921B0181E00895D5
:102C700080931B0181E0089580E008952A989F7059
:102C800090679EBD0DB407FEFDCF8EBD0DB407FE4F
:102C9000FDCF2A9A0895DF92EF92FF920F931F9330
:102CA0002F933F934F935F93112722273327442776
:102CB00000E8FF24EE24DD2450E2DD0CEE1CFF1CB6
:102CC000001F111F221F331F441F16172707380725
:102CD000490728F0161B270B380B490BD3945A953C
:102CE00061F7902F8F2D7E2D6D2D5F914F913F912C
:102CF0002F911F910F91FF90EF90DF9008958138F1
:102D000060F0873960F08B3A60F08D3B60F0803D79
:102D100060F08D3D60F489EF08958EEF08958DEF9A
:102D200008958CEF08958BEF08958AEF089588EF4A
:102D30000895CF93DF93CDB7DEB7CE56D1090FB646
:102D4000F894DEBF0FBECDBF19820E949D150E9470
:102D50008710409A0E94091385E08093690083E000
:102D60008DBB10926D0010926C0080E490E00E9488
:102D7000C91580910801811102C00E949F138091A2
:102D80000A01882311F40C940A37339902C0359B49
:102D900008C0339902C00C940737359902C00C94CF
:102DA0000737449A8FE19EE40197F1F700C00000D5
:102DB00013B111701093040180E190E00E94B539C5
:102DC00089838A3A11F40C94023710920A0181E146
:102DD00090E00E94B53989838A3A11F40C94FD364B
:102DE0001092090183E190E00E94B53989838A3A03
:102DF00011F40C94F8368F3F11F40C94E6361092CF
:102E0000080185E190E00E94B53989838A3A11F47E
:102E10000C94E1361092070186E190E00E94B539EA
:102E200089838A3A11F40C94DC361092060182E10F
:102E300090E00E94B53989838A3A11F40C94823764
:102E40001092050184E190E00E94B53989838A3AA5
:102E500011F40C947E3781E080930001AFE1BEE471
:102E60001197F1F700C0000081E080930201A29663
:102E70001FAEA297A4961FAEA4972B961FAE2B97BA
:102E800019AA18A219A21AA21BA2312C812C912CCA
:102E90006A961FAE6A971AAA1EA61BAA6D961FAE47
:102EA0006D97A5961FAEA597A1961CAE1DAE1EAE42
:102EB0001FAEA197A9961CAE1DAE1EAE1FAEA99760
:102EC0002D961FAE2D971FA66C961FAE6C9767961A
:102ED0001CAE1DAE1EAE1FAE679726961CAE1DAE75
:102EE0001EAE1FAE269722961CAE1DAE1EAE1FAEA6
:102EF000229762961FAE1EAE62971F8E2A961CAE58
:102F00001DAE1EAE1FAE2A971DAA212C1C861B8645
:102F1000B2E0BDA3F4E02E96FFAF2E9704E06096DA
:102F20000FAF609714E06B961FAF6B9724E02F965E
:102F30002FAF2F9734E063963FAF639741E06896D9
:102F40004FAF689751E05A878FE7A3968FAFA3974B
:102F50009FE79CA31EA21FA218A619A61B8A1C8A63
:102F60001D8A1E8A1F8A188E198E1A8E1B8E1C8E21
:102F70001D8E1E8EA1E06996AFAF69971AA61BA69B
:102F80001CA61DA61A821B821C821D8218AA1CAABE
:102F90002C961FAE2C97B12CBEAAAF969FAE8EAECC
:102FA000AF974F9B02C00C94D2200E9412156B0168
:102FB0007C018DA881100C94332381E080930E0155
:102FC0002A968CAC9DACAEACBFAC2A978114910410
:102FD000A104B10411F40C94A624C814D904EA0481
:102FE000FB0410F00C942C28B501A4014C195D09C8
:102FF0006E097F092A968CAD9DADAEADBFAD2A9707
:10300000B695A79597958795481759076A077B073F
:1030100010F00C94A624F694E794D794C794C80EA5
:10302000D91EEA1EFB1E0E9466150E945B15B701A1
:10303000A6018A850E94CB102B013C0180910501DD
:10304000882311F40C9492240CE440160DE15006F0
:103050006104710410F40C9492248CA186568D3076
:1030600010F40C94072C7727672D562D452D9CA026
:10307000A92DB0E09A01AB010E94E73868390AE354
:1030800070078105910520F468E97AE380E090E01B
:103090009301820108591A43210931096B8B7C8BFA
:1030A0008D8B9E8B061717072807390720F40B8B8B
:1030B0001C8B2D8B3E8B8B889C88AD88BE8805E051
:1030C000B694A794979487940A95D1F78B899C8995
:1030D000AD89BE89A3019201281B390B4A0B5B0BFA
:1030E0002F8B388F498F5A8FCA01B901F5E0969519
:1030F000879577956795FA95D1F70E944B1622969A
:103100006CAF7DAF8EAF9FAF2297C501B4010E9417
:103110004B1626966CAF7DAF8EAF9FAF2697CEA293
:10312000DFA2E8A6F9A6CB8EDC8EED8EFE8E9AE0AD
:103130009FA7A1E0ADAB212C00E911E01C870B8714
:103140004C9BD1C58CA881100C948823109202014D
:103150008F88988CA98CBA8C01E0801600E19006CB
:10316000A104B10410F011E01BAB0E9434156AA752
:103170007BA78CA79DA76A961FAE6A9721E02CAB10
:1031800031E02C963FAF2C97809111019091120164
:10319000A0911301B0911401892B8A2B8B2B41F143
:1031A0001092110110921201109213011092140149
:1031B000339904C0359902C00C947821339B04C024
:1031C000359B02C00C9478218F8C882011F40C94CC
:1031D00078212E969FAC2E972F969FAE2F976096B4
:1031E0008FAC609763968FAE63972D961FAE2D9729
:1031F000339972C5359970C5449A88A881100C948A
:1032000085248B8C9C8CAD8CBE8C89288A288B283D
:1032100009F422C180910E01882311F40C94F9283D
:103220000E9401156B017C014B8D5C8D6D8D7E8D37
:103230008A850E94CB102B013C01809105018823D7
:1032400011F40C943F270CE440160DE15006610484
:10325000710410F40C943F278CA186568D3010F425
:103260000C94602F7727672D562D452D9CA0A92DF6
:10327000B0E09A01AB010E94E73868390AE37007B1
:103280008105910520F468E97AE380E090E09301FC
:10329000820108591A43210931096B8B7C8B8D8B74
:1032A0009E8B061717072807390720F40B8B1C8BFA
:1032B0002D8B3E8B8B889C88AD88BE8815E0B6949C
:1032C000A794979487941A95D1F78B899C89AD8997
:1032D000BE89A3019201281B390B4A0B5B0B2F8B74
:1032E000388F498F5A8FCA01B901E5E096958795C5
:1032F00077956795EA95D1F70E944B1622966CAFA9
:103300007DAF8EAF9FAF2297C501B4010E944B16CF
:1033100026966CAF7DAF8EAF9FAF26978F8C8110B6
:103320000C94F32880910201882311F40C94762ADE
:103330000A85023014F40C94DF304C145D046E04E2
:103340007F04A8F08B8D9C8DAD8DBE8DAF968EAC1D
:103350009FACAF97C80ED91EEA1EFB1E4C145D042D
:103360006E047F04B8F7AF969FAE8EAEAF978B8C8E
:103370009C8CAD8CBE8CC818D908EA08FB088F88D5
:10338000988CA98CBA8CC701B6018C149D04AE042C
:10339000BF0410F40C94782E20E030E140E050E0BF
:1033A0000E94FA386501540145015601C12CD12C07
:1033B00076018A829B82AC82BD82CE82DF82E886E1
:1033C000F9865401CC80DD80E12CF12C00E010E086
:1033D0000E942739C901DA017C01DD24CC246796DB
:1033E000CCAEDDAEEEAEFFAE679762968EAC9FAC14
:1033F0006297811408E0900614F40C943D3180919A
:10340000080181110C942B358091070181110FC0A7
:1034100080911C0190911D01A0911E01B0911F018E
:103420008697A105B10518F05E9A0E948715109243
:103430000C0180910A01882311F40C945F318A8475
:103440008EA660969FAC609763969FAE639701E0EF
:103450000F8F11E018AB0EAB0E9434158AA49BA409
:10346000ACA4BDA4481459046A047B0420F41AA631
:103470001BA61CA61DA620910201211122C0339972
:1034800032C7359930C78AA49BA4ACA4BDA46815E3
:1034900079058A059B05A8F069969FAC69979110FC
:1034A0000C94ED286A968FAC6A97882051F09CA8FE
:1034B000911007C06A961FAE6A9711E02C961FAF55
:1034C0002C978AA881108EC641145104610471049E
:1034D00011F00C948C231AAA29988EA09FA0A8A45E
:1034E000B9A481149104A104B10409F018C7809112
:1034F000150190911601A0911701B0911801892B27
:103500008A2B8B2B09F046C78B8C9C8CAD8CBE8C88
:1035100089288A288B2811F00C94BB260B851C85E2
:103520000F5F1F4F1C870B874A825B826C827D82F4
:10353000CE0101960E942316882351F1898187FFCD
:1035400002C00C94CB2639A9313011F40C94D32647
:1035500010F40C94CB26323029F4A2968FAFA297A8
:1035600053E059AB80910401982F906F2B968FAC4C
:103570002B97891611F40C942926982F946F89168D
:1035800011F40C943B2699A9933011F40C94B025B6
:103590008B849C8401E9801601E0900609F003C247
:1035A0001DA1113011F40C94AC26123011F40C94BE
:1035B0002327163011F40C942128812F80628093E8
:1035C0007C0080917A00806480937A00AF968EAC04
:1035D0009FACAF9780917A0084FFFCCFAF969FAEEF
:1035E0008EAEAF9780917A00806180937A000091CF
:1035F00079005DA1513011F40C949A26563011F4E3
:103600000C94DA26523009F470C380E09FA499200C
:1036100019F0092D0F5F0FA7882309F4B2C08F8C12
:10362000882041F080910201882321F001E02D964D
:103630000FAF2D976C968FAC6C978820E9F08EA514
:1036400087FF02C00C94FB2B68969FAC68979EA6E0
:1036500089150CF48EA74B8D5C8D6D8D7E8D6896D3
:103660008FAD68970E94CB106A837B838C839D8388
:1036700068968FAC68978A8680910501882311F43B
:103680000C94E1248A809B80AC80BD800CE4801681
:103690000DE19006A104B10410F40C94E1248CA176
:1036A00086568A809B80AC80BD808D3010F40C944F
:1036B000972C77276B2D5A2D492D9CA0A92DB0E072
:1036C0009A01AB010E94E73868390AE37007810567
:1036D000910520F468E97AE380E090E0CA80DB801D
:1036E000EC80FD8018E9C11A1AE3D10AE108F1085B
:1036F0006B8B7C8B8D8B9E8BC616D706E806F906E6
:1037000020F4CB8ADC8AED8AFE8ACB88DC88ED88BF
:10371000FE8855E0F694E794D794C7945A95D1F76C
:103720000B891C892D893E898A809B80AC80BD8055
:10373000801A910AA20AB30A8F8A988EA98EBA8E2D
:10374000C501B40115E096958795779567951A950B
:10375000D1F70E944B1622966CAF7DAF8EAF9FAF14
:103760002297C701B6010E944B1626966CAF7DAF1B
:103770008EAF9FAF269711E01FA721E069962FAF6C
:1037800069978A809B80AC80BD8089288A288B2895
:1037900009F444C580910201882309F43FC50FA5AF
:1037A0000A3008F43BC580910E01882311F40C9473
:1037B000212B0E9401156B017C011A85123014F433
:1037C0000C942A2B9F8C91100C94AE2C8A809B8099
:1037D000AC80BD808C149D04AE04BF04B8F0D5014C
:1037E000C4014B8D5C8D6D8D7E8DAF968EAC9FAC84
:1037F000AF97C40ED51EE61EF71E8C159D05AE05AF
:10380000BF05B8F7AF969FAE8EAEAF978B8C9C8CF2
:10381000AD8CBE8CC818D908EA08FB089A849EA60D
:10382000F894BB27AF2D9E2D8D2D80933001909362
:103830003101A0933201B093330178948F8C8820AA
:1038400009F4E5C400E8D00EE11CF11C8A809B80DD
:10385000AC80BD808C149D04AE04BF0420F4C81855
:10386000D908EA08FB088F88988CA98CBA8C8C142C
:103870009D04AE04BF0410F40C94DB2D56016701C7
:103880009501A60160E070E080E090E00CE00E940D
:103890008439AF88B88CC98CDA8C45015601C12CAB
:1038A000D12C76018B869C86AD86BE86CF86D88A43
:1038B000E98AFA8A5401CD84DE84E12CF12C00E0FF
:1038C00010E00E942739C901A901662757FD6095BC
:1038D000762F5A0199248824A9968CAE9DAEAEAE5F
:1038E000BFAEA99760966FAD60970E94941201E0F9
:1038F000A5960FAFA59762968EAC9FAC6297A40178
:10390000662757FD6095762F6A01BB24AA24679627
:10391000ACAEBDAECEAEDFAE67978816990614F09A
:103920000C94BE2D881999094C01AA2497FCA094E7
:10393000BA2C09E0880C991CAA1CBB1C0A95D1F76B
:10394000A1968CAE9DAEAEAEBFAEA1972A852230B9
:1039500014F40C949237A5960FADA597013011F48D
:103960000C94BA31033011F40C94A13311E06A962F
:103970001FAF6A9721E02BAB30E86D963FAF6D9794
:1039800042E0A5964FAFA5972D961FAE2D971FA687
:103990006C961FAE6C971C861B8654E06B965FAFCF
:1039A0006B9704E00EAB8091070181113EC48091BA
:1039B000060181114AC48B8C9C8CAD8CBE8C8928ED
:1039C0008A288B2841F08A809B80AC80BD80892822
:1039D0008A288B2811F41BAA1F8E80910D01882341
:1039E00009F4BFC070900D0110920D012C969FAC90
:1039F0002C97992009F453C762960EAD1FAD6297BC
:103A0000003111050CF0C6C61BAA80910A0188235B
:103A100011F40C94882880910801882311F40C94E7
:103A2000712867961CAE1DAE1EAE1FAE679711E0E3
:103A30001F8F01E00EAB109210012E968FAC2E97C7
:103A40002F968FAE2F9760969FAC609763969FAE30
:103A500063970EA9023011F40C94052A10F40C940B
:103A600053271EA9133011F40C942D29143011F092
:103A70000C942929A72DB0E0A1962CAD3DAD4EADFB
:103A80005FADA1970E94E73867968CAC9DACAEAC59
:103A9000BFAC6797860E971EA81EB91E67968CAEA0
:103AA0009DAEAEAEBFAE6797B7FE02C00C94F32AD0
:103AB000232B242B252B11F40C94F32A6796ACAC02
:103AC000BDACCEACDFAC679701E0A016B1040FEF40
:103AD000C0060FE0D00614F40C9492306D967FAEC1
:103AE0006D97812C912CAA24AA942FE0B22E679670
:103AF0008CAE9DAEAEAEBFAE67978FEF9FE0A19646
:103B00008CAC9DACAEACBFACA19720910801181451
:103B100019041A041B0414F00C94F02E222311F43F
:103B20000C94792F20910A01222311F40C94A02FD8
:103B30006D969FAC6D9797186D969FAE6D97191403
:103B400014F00C94DC2E6B966FAD6B970E94941260
:103B500062969FAF8EAF62970E943E162C961FAE64
:103B60002C974F997AC528A139A14AA15BA12F5F53
:103B70003F4F4F4F5F4F28A339A34AA35BA3213D7B
:103B80003B4F4140510508F40CCA00E0AF968EACA3
:103B90009FACAF975E985D98449A299A80E098E030
:103BA0000E943E169FEFA1EEB4E09150A040B040BD
:103BB000E1F700C00000043011F40C94AD375E9AB8
:103BC0005D9A4498299880E090E00E943E163FEF6D
:103BD00041EE54E0315040405040E1F700C0000059
:103BE0000F5F0530B9F64F9BFECFAF969FAE8EAEFE
:103BF000AF978FEF90E7A2E081509040A040E1F7AF
:103C000000C00000B6B0B3FABB24B0F881E0B8261B
:103C10005D9880910A01882309F478C5449A11E0DF
:103C200000E0C12CD12C7601AA24A394AF968EACCF
:103C30009FACAF97222D932D34C086B183FB88278C
:103C400080F98A258983B81629F1BFEFF0E712E0E1
:103C5000B150F0401040E1F700C00000B9800230E0
:103C600009F412C308F096C0002309F416C301300A
:103C700009F0A4C280910701502F581B50930701EF
:103C800051119CC280910801902F981B90930801BC
:103C900011E090E0C114D10438E0E306F10408F02B
:103CA0008EC04F9944C0BFEFCB1ADB0AEB0AFB0A68
:103CB000222309F443C021E0913069F1923009F0E8
:103CC000BCCF5FEF851A950A88E988168AE39806C3
:103CD00008F080C2449AB1CF339B02C035998CCA98
:103CE000449818AAB9CB1CAA4FCAA3968FACA39725
:103CF000081510F00C94DA2A882D801B1EA91430A8
:103D000011F40C94E12A81110C94002B19827ECCC1
:103D100000E010E021E0FFEF8F1A9F0A38E88316D9
:103D200033E1930608F04DC2449A91E086CF111119
:103D3000BACFC12CD12C760120E0BECFB6B0B3FAF9
:103D4000BB24B0F8BA245E9A5D9A299880E090E08E
:103D50000E943E16111101C00F5F023009F48BC69C
:103D600008F47FC2043009F491C608F498C60530FF
:103D700009F0A2C65D989091060180910A018823FE
:103D800009F495C691110C941C29449A00E010E0A6
:103D900021E094CF033009F491C2043009F00EC23F
:103DA00080910001FA2DF81BF093000111E090E0E2
:103DB000C114D10438E0E306F10408F472CFAF96E1
:103DC0009FAE8EAEAF97222E392E5E985D98449AA4
:103DD000299A80E098E00E943E164FEF50E782E07B
:103DE000415050408040E1F700C0000080910A013E
:103DF000882309F476C48AEA89836AEAAF968EAC8E
:103E00009FACAF97F999FECFAF969FAE8EAEAF97AE
:103E100080E190E00E94BD39AF968EAC9FACAF9729
:103E2000F999FECFAF969FAE8EAEAF975E9A5D9A30
:103E30004498299880E090E00E943E169FEFA0E70A
:103E4000B2E09150A040B040E1F700C000005E98A1
:103E50005D98449A299A80E098E00E943E16FFEF10
:103E600000E712E0F15000401040E1F700C0000010
:103E700080910901882309F42DC48AEA89836AEABA
:103E8000AF968EAC9FACAF97F999FECFAF969FAE31
:103E90008EAEAF9781E190E00E94BD39AF968EACB7
:103EA0009FACAF97F999FECFAF969FAE8EAEAF970E
:103EB0005E9A5D9A4498299880E090E00E943E16B0
:103EC0002FEF30E742E0215030404040E1F700C0A2
:103ED00000005E985D98449A299A80E098E00E94DC
:103EE0003E165FEF80E792E0515080409040E1F74E
:103EF00000C0000080910801882309F4E4C38AEA25
:103F000089836AEAAF968EAC9FACAF97F999FECFE2
:103F1000AF969FAE8EAEAF9783E190E00E94BD3921
:103F2000AF968EAC9FACAF97F999FECFAF969FAE90
:103F30008EAEAF975E9A5D9A4498299880E090E0A3
:103F40000E943E16AFEFB0E7F2E0A150B040F04063
:103F5000E1F700C000005E985D98449A299A80E0DD
:103F600098E00E943E160FEF10E722E0015010404B
:103F70002040E1F700C0000080910501882309F48A
:103F80009BC38AEA89836AEAAF968EAC9FACAF97EF
:103F9000F999FECFAF969FAE8EAEAF9782E190E0DB
:103FA0000E94BD39AF968EAC9FACAF97F999FECF0A
:103FB000AF969FAE8EAEAF975E9A5D9A4498299861
:103FC00080E090E00E943E163FEF40E752E0315023
:103FD00040405040E1F700C000005E985D98449A70
:103FE000299A80E098E00E943E168FEF90E7A2E0C9
:103FF00081509040A040E1F700C00000809107018F
:10400000882309F47CC38AEA89836AEAAF968EAC76
:104010009FACAF97F999FECFAF969FAE8EAEAF979C
:1040200085E190E00E94BD39AF968EAC9FACAF9712
:10403000F999FECFAF969FAE8EAEAF975E9A5D9A1E
:104040004498299880E090E00E943E16BFEFF0E788
:1040500002E0B150F0400040E1F700C000005E987F
:104060005D98449A299A80E098E00E943E161FEFDE
:1040700020E732E0115020403040E1F700C000005E
:1040800080910601882309F433C38AEA89836AEAA6
:10409000AF968EAC9FACAF97F999FECFAF969FAE1F
:1040A0008EAEAF9786E190E00E94BD39AF968EACA0
:1040B0009FACAF97F999FECFAF969FAE8EAEAF97FC
:1040C0005E9A5D9A4498299880E090E00E943E169E
:1040D0004FEF50E782E0415050408040E1F700C090
:1040E00000005E985D98449A299A80E098E00E94CA
:1040F0003E169FEFA0E7B2E09150A040B040E1F73C
:1041000000C00000809100018111CFC28AEA89833A
:104110006AEAAF968EAC9FACAF97F999FECFAF9697
:104120009FAE8EAEAF9784E190E00E94BD39AF960E
:104130008EAC9FACAF97F999FECFAF969FAE8EAE87
:10414000AF9780910A01882309F4FFC48091080188
:10415000882309F4DEC48091070181110FC080918A
:104160001C0190911D01A0911E01B0911F01869725
:10417000A105B10518F05E9A0E94871510920C01F6
:1041800080910A018111AFC43399A1C035999FC0B4
:10419000449A18A219A21AA21BA218AA4F9902C0E7
:1041A0000C94D5172110A8C329984A805B806C8095
:1041B0007D801DAA222423940C94A01811E090E085
:1041C00069CD40E5841643EC940608F0A1C04498FC
:1041D00091E033CDA8EA8A16A1E69A0608F09CC0C1
:1041E00044982BCD73016201F694E794D794C79459
:1041F0006C157D058E059F0508F07BC341145104A5
:104200006104710409F098C701E00AAB65C92D96F5
:104210001FAE2D971FA66C961FAE6C971C861B8633
:1042200080910701882309F4C2CB0E9445156C35A3
:1042300071058105910508F4BACB0E9487155E9A35
:1042400080910601882309F4B6CB0E9450156C3585
:1042500071058105910508F4AECB0E9492155D9A17
:10426000AACB002309F486CD013009F025C45E985D
:104270009091070180910801882309F4E9C5911103
:104280000C94202C449A83CD80910501AA2DA81B63
:10429000A093050111E090E0FDCC809106013A2D3C
:1042A000381B30930601311189CF80910A014A2DC4
:1042B000481B40930A0111E090E0ECCC8091090189
:1042C000BA2DB81BB093090111E090E0E3CC339B09
:1042D00002C035995DCF449818A219A21AA21BA258
:1042E00018AA0C94D117339BECC8359BEAC8CBC8ED
:1042F0008F88988CA98CBA8C01E0801600E190061A
:10430000A104B10408F0DAC38A848EA60C94E918DB
:10431000812C912C91E091CC812C912C8ECC0E94FF
:10432000011575016401F694E794D794C7946C1550
:104330007D058E059F0528F020910A0121110C941E
:10434000452A8EA09FA0A8A4B9A4681579058A055E
:104350009B0508F4CCC80E945B1580910E01882350
:1043600011F40C94422A0A85023014F40C94B632EB
:1043700001E080910A01882351F080910B018111A5
:1043800006C05D9881E080930B010E949215002386
:1043900009F4ADC88091150190911601A091170103
:1043A000B0911801892B8A2B8B2B71F04A9B0CC082
:1043B0008090150190901601A0901701B0901801FF
:1043C0008B8E9C8EAD8EBE8E80910E01811106C0AB
:1043D0002A961CAE1DAE1EAE1FAE2A971092150176
:1043E0001092160110921701109218010A850230DE
:1043F0000CF48FC24B8D5C8D6D8D7E8D8A850E94F5
:10440000CB106A837B838C839D83411451046104A8
:10441000710409F001C1EB84FC842FEFE21AF20A67
:1044200080910501882309F4E3C08A809B80AC80D9
:10443000BD800CE480160DE19006A104B10408F4DF
:10444000D7C08CA186568A809B80AC80BD808D3081
:1044500008F4B8C577276B2D5A2D492D9CA0A92D9E
:10446000B0E09A01AB010E94E73868390AE37007AF
:104470008105910520F468E97AE380E090E04A80C4
:104480005B806C807D8018E9411A1AE3510A61084B
:1044900071086B8B7C8B8D8B9E8B4616570668063E
:1044A000790620F44B8A5C8A6D8A7E8A4B885C8808
:1044B0006D887E8825E076946794579447942A9572
:1044C000D1F70B891C892D893E898A809B80AC801D
:1044D000BD80801A910AA20AB30A8F8A988EA98E8B
:1044E000BA8EC501B401F5E09695879577956795E5
:1044F000FA95D1F70E944B1622966CAF7DAF8EAF26
:104500009FAF2297C301B2010E944B1626966CAF53
:104510007DAF8EAF9FAF2697339902C0359B58C0B1
:10452000339B02C0359954C080910F01811150C056
:104530008091100181114CC08F8C882009F454C0E7
:104540001A8512300CF40AC22D969FAC2D9791104B
:1045500003C00EA50F5F0EA78A849EA498140CF4C6
:1045600043C080910201882339F12D968FAC2D979D
:10457000811022C0339902C0359B0CC0339B02C00E
:10458000359908C080911001811104C080910F01FC
:10459000882391F062960EAD1FAD6297013411052C
:1045A00014F40C94AE2B8BA881100C94D62E198287
:1045B00001E02C960FAF2C97109210010E947C15F1
:1045C000299AFC86EB8631E03AAB1EA60C94981A29
:1045D0000A8502300CF4C2C18F8C8110B5CF8A8459
:1045E0009EA498140CF0BDCFFC86EB860C94981A10
:1045F0008CA0811009C288E1482E512C612C712CAD
:10460000812C93E0992EA12CB12C8B8A9C8AAD8AA7
:10461000BE8A9501840159CF4B015C0146165706AD
:104620006806790608F0E9C1DC01CB018419950917
:10463000A609B70903E076946794579447940A95BE
:10464000D1F7481659066A067B0608F4CFC1EB84F9
:10465000FC840FEFE01AF00AE3CE18A219A21AA206
:104660001BA20C94D11761301EE3710719E4810776
:10467000910508F476C380910E01811142C70E9412
:104680005B1529984A805B806C807D802A961CAEE1
:104690001DAE1EAE1FAE2A9721E02DAB212C1EA20F
:1046A0001FA218A619A60C94A018198260E0AF9654
:1046B0008EAC9FACAF9731CD198260E0AF968EACD7
:1046C0009FACAF9765CC198260E0AF968EAC9FAC83
:1046D000AF971CCC198260E0AF968EAC9FACAF97C1
:1046E000D3CB198260E0AF968EAC9FACAF978ACBEC
:1046F000198260E0AF968EAC9FACAF97CDCC19829B
:1047000060E0AF968EAC9FACAF9784CC449887CADC
:1047100041E04CAB0C94C41846165706680679065F
:1047200008F03EC3DC01CB0184199509A609B7093D
:10473000892F9A2FAB2FBB27F89480933001909349
:104740003101A0933201B09333017894299A80917A
:104750000201811104C001E06A960FAF6A9780914F
:104760000201882309F4E8C480911001811147C532
:10477000339902C0359B43C5339B02C035993FC571
:1047800080910F0181113BC58A848EA601E00AAB9E
:104790000C946D1A8F8C882009F437C99BA8992036
:1047A00009F433C98A809B80AC80BD80811400E805
:1047B0009006A104B10408F428C91BA9113011F412
:1047C0000C9498308F88988CA98CBA8C811400E84E
:1047D0009006A104B10410F40C944F2D95018401AE
:1047E00054016901E12CF12C00E010E020E030E000
:1047F00040E058E060E070E080E090E00E942739FF
:1048000079018A01570199248824A9968CAE9DAE1E
:10481000AEAEBFAEA99760966FAD6097C7010E941C
:10482000941201E0A5960FAFA59762968EAC9FAC4F
:1048300062978816990614F00C94A12D881999098D
:104840004C01AA2497FCA094BA2C59E0880C991C1E
:10485000AA1CBB1C5A95D1F7A1968CAE9DAEAEAEEC
:10486000BFAEA19762968EAC9FAC6297C401AA2797
:1048700097FDA095BA2F6C01BB24AA246796ACAE15
:10488000BDAECEAEDFAE679700E86D960FAF6D9709
:1048900014E06B961FAF6B9704E00EABCCC88F8C07
:1048A0008110D7C880910801882309F4A1C38091A1
:1048B000070181110FC080911C0190911D01A091F1
:1048C0001E01B0911F018697A105B10518F05E9AEF
:1048D0000E94871510920C0180910A01882309F427
:1048E000A5C380E090E00E943E1610920D011BAA25
:1048F00038C929980C94641A4A805B806C807D804A
:104900001DAA222423940C94A01841E048AB0C94D7
:104910002C1A80910E01882309F45CC4299A11E0B5
:104920001AAB68CD8CA08110A7C318E1812E912C01
:10493000A12CB12C20E033E040E050E02B8B3C8BED
:104940004D8B5E8BDA01C9010C946A182A96CCAEA5
:10495000DDAEEEAEFFAE2A970C94131880910201E3
:10496000882339F12D968FAC2D97811022C080912C
:10497000100181110CC0339902C0359B08C0339BD4
:1049800002C0359904C080910F01882391F062968E
:104990000EAD1FAD62970134110514F40C94E62C92
:1049A0008BA881100C942430198201E02C960FAF53
:1049B0002C97109210010E947C15FC86EB860C94BB
:1049C000981A8CA08110CDC338E1C32ED12CE12CD4
:1049D000F12C812C43E0942EA12CB12C8B8A9C8A43
:1049E000AD8ABE8A950184010C94941B11E9E12ED5
:1049F000FF24F3941AE01FA713CDD301C201881935
:104A00009909AA09BB0916CE082D013009F426C25E
:104A1000023009F425C50A3108F03CC68A809B8023
:104A2000AC80BD8077276B2D5A2D492DA02FB0E08B
:104A30009A01AB010E94E738009F200111240FE08A
:104A4000400E511C00245694479407945694479462
:104A50000794542C402C662457FC6094762C6115E6
:104A600015E071078105910508F013CD60E075E050
:104A700080E090E00ECD8FEF9FE00E943E16809187
:104A80000501882349F0449A90E081C95E985D98B9
:104A9000809100018823B9F3449890E078C9299A5D
:104AA000809109018111EFCF449890E070C9911174
:104AB0002FC9449800E06BC990E069C99A849EA60A
:104AC0002E968FAC2E972F968FAE2F9760969FAC19
:104AD000609763969FAE639701E00BAB2D961FAE78
:104AE0002D970C94F8188091060181110FC08091C8
:104AF000280190912901A0912A01B0912B0186975C
:104B0000A105B10518F05D9A0E94921510920B0153
:104B10003BCB80910701811131CB80911C01909199
:104B20001D01A0911E01B0911F018697A105B1053D
:104B300008F424CB5E9A0E94871580910801109298
:104B40000C01882309F41CCB06CB80910B01811149
:104B5000FDCA5D9881E080930B010E949215F6CA10
:104B60008C6F2B968FAC2B9788120C94C81AA49636
:104B70008FADA497880FA2969FADA2979295969518
:104B800096959370892BA2962FADA2972F70E82F40
:104B9000E17080FD2BC7198290E031E0482F427010
:104BA00081FF02C03983932F82FF02C09F5F9983E8
:104BB000782F787083FF02C09F5F9983682F6071A0
:104BC00084FF02C09F5F9983582F507285FF02C0F7
:104BD0009F5F9983382F307486FF02C09F5F99834F
:104BE00087FF02C00C94B92F291719F019AA0C9449
:104BF000C81AEE2311F40C94D932109208017723CD
:104C000011F40C94D43210920701662311F40C9421
:104C1000CF3210920A01552311F40C94CA3210922B
:104C20000601442311F40C94C63291E090930001E4
:104C3000332311F40C94BB3291E09093050187FF6C
:104C400002C00C94C13281E08093090119AA0C942E
:104C5000C81A0E94DF15809104018C6C0E94D8153F
:104C60000AE60A95F1F700C00E94E615809104015A
:104C7000846F8812BBCF198280910801882309F4C0
:104C8000E8C188E0898328E298E080910A018823BE
:104C900011F02983922F80910001882311F0905CFC
:104CA000998380910901882311F09058998380910C
:104CB0000501882311F09C5F998380910701882367
:104CC00011F0905F998380910601882311F09E5F17
:104CD0009983F92EF694292F2170022F0295000F47
:104CE000000F007C21110F5F91FD0F5F92FD0F5FA0
:104CF00093FD0F5F94FD0F5F95FD0F5F96FD0F5FB6
:104D000097FDFDC30E94DF1580910401826C0E9413
:104D1000D8158F2D0E94D815802F0E94D8158FE8A6
:104D200091E00197F1F700C000000E94E61519AA72
:104D30000C94C81A8CA0801608F088C1802F88199E
:104D4000823010F40C94051B8A8468968FAE6897A5
:104D50000CA381E00C94061B82E222E02DA30C94AC
:104D6000DF1A299A4A805B806C807D8031E03DAB00
:104D7000212C0C94A018809109018111E1C12B858F
:104D80003C852F5F3F4F3C872B874A825B826C823A
:104D90007D820C94981A86FDC8C119AA0C94B21A87
:104DA0001AAA0C946D1AA4968FAFA49742E049AB4F
:104DB0000C94B21A80E0002309F442C2053008F4D2
:104DC0001DC5063110F40C941C2F043210F40C9401
:104DD0007231043310F40C947434063410F40C94CF
:104DE0005B35003510F40C94A235053610F40C94A4
:104DF0008636093710F40C947C360A3810F40C947B
:104E00005537063910F40C944B37073A10F40C94CC
:104E10004137083B10F40C943737093C10F40C94DC
:104E20002D37043D10F40C942337003E10F00C9401
:104E30001A3722E02E962FAF2E9738E060963FAFBC
:104E400060970C94061B86E236E03DA30C94DF1AB3
:104E500091110C94891E44980C94C71E10E2412EA7
:104E6000512C612C712C812C04E0902EA12CB12CA2
:104E70008B8A9C8AAD8ABE8A9501840126CB8CA040
:104E8000811084C4B8E18B2E912CA12CB12C20E090
:104E900033E040E050E02B8B3C8B4D8B5E8BDA0196
:104EA000C9010C946919013009F0D3C1A72DB0E0F4
:104EB00022962CAD3DAD4EAD5FAD22970E94E738F6
:104EC00067968CAC9DACAEACBFAC6797860E971E58
:104ED000A81EB91E67968CAE9DAEAEAEBFAE6797EC
:104EE00001E0801691040FEFA0060FE0B0060CF46D
:104EF0000EC58CA8882009F47DC580910001882307
:104F000009F478C502E0812C912CAA24AA949FE090
:104F1000B92E67968CAE9DAEAEAEBFAE67978FEFE3
:104F20009FE02091080121110C9423312091070169
:104F300021111CC040911C0150911D0160911E0166
:104F400070911F01463251056105710578F05E9A36
:104F5000AC968FAFAC97AD969FAFAD970E9487157B
:104F6000AD969FADAD97AC968FADAC9710920C01FE
:104F700020910A01222309F482C663969FAC6397AD
:104F80006B969FAE6B97692D0E94941262969FAFAD
:104F90008EAF62970E943E16002311F40C94AE1D52
:104FA000033009F4D3C2013009F414C3023039F4D8
:104FB0002E968FAC2E972F968FAE2F9702E00EABCA
:104FC0000C94AE1DB694A794979487948B8A9C8A70
:104FD000AD8ABE8A4A805B806C807D8056E0769484
:104FE0006794579447945A95D1F7950184016DCAF7
:104FF0008091070181116ECC80911C0190911D015F
:10500000A0911E01B0911F018697A105B10508F47A
:1050100061CC5E9A0E9487158091080110920C0164
:10502000811145CC80910A0181115BCC80910B01EB
:10503000811157CC5D9881E080930B010E949215FD
:1050400050CC81E241E04DA30C94DF1A882D801BE7
:1050500077CE20E290E019CEB701A6012A968CAC5B
:105060009DACAEACBFAC2A97481959096A097B09B7
:10507000D501C4010C940018082D013009F45FC358
:10508000023009F4D4C40A3108F07CC77727672DB1
:10509000562D452DA82DB0E09A01AB010E94E738AE
:1050A000889C90011124215F3F4F0024369527955D
:1050B0000794369527950794322F202D89012227B2
:1050C00017FD2095322F611545E074078105910584
:1050D00010F00C944E1860E075E080E090E00C94C5
:1050E0004E188091070181110FC080911C01909191
:1050F0001D01A0911E01B0911F018697A105B10568
:1051000018F05E9A0E94871510920C010C94111DE4
:1051100080910B0181110C940B1D5D9881E08093AF
:105120000B010E9492150C940B1D2B968FAF2B97A1
:1051300081E089AB0C94B21A21E02AAB0C946D1A71
:1051400080910E01882309F457C44B855C854F5F1D
:105150005F4F5C874B874A825B826C827D820C94B6
:10516000981A082D013009F4FFC2023009F46AC50B
:105170000A3108F06FC78A809B80AC80BD8077279A
:105180006B2D5A2D492DA02FB0E09A01AB010E9442
:10519000E738009F600111240FE0C00ED11C0024ED
:1051A000D694C7940794D694C7940794DC2CC02C4B
:1051B000EE24D7FCE094FE2C611515E07107810503
:1051C000910510F00C94781B60E075E080E090E0B1
:1051D0000C94781B0E947C15A1CB01E069960FAF5F
:1051E00069970C94611A8A848EA601E008AB0C942E
:1051F0002C1A0E9423156B017C010C9414192D9616
:105200008FAC2D978110C0CA1092100162960EAD1E
:105210001FAD6297013411050CF4DEC38BA8811019
:10522000DBC319829A849EA601E00AAB11E02C969A
:105230001FAF2C970C946D1A00E092E00C94C71EDF
:1052400008E02E960FAF2E9760961FAE60970C94D5
:10525000061B80E090E00C94A31DA72DB0E02696DD
:105260002CAD3DAD4EAD5FAD26970E94E7386796F9
:10527000ACACBDACCEACDFAC6797A61AB70AC80A17
:10528000D90AB601A50161507109413051056E4F2F
:105290007F4008F0F2C26796ACAEBDAECEAEDFAED8
:1052A000679767968EAD9FAD679700E020910801E4
:1052B000222309F4EFC220910A01222309F404C336
:1052C00020910801811518E091070CF0BCC2211152
:1052D00053C72F966FAD2F970E94941262969FAF7F
:1052E0008EAF62970E943E16002311F40C9487370C
:1052F00080910A01882309F433C180910801882331
:1053000009F43CC18091070181110FC080911C01FB
:1053100090911D01A0911E01B0911F018697A105DA
:10532000B10518F05E9A0E94871510920C0133990E
:1053300002C0359B26C0339B02C0359922C08091A4
:105340000F0181111EC08091100181111AC02F968A
:105350008FAC2F976B968FAE6B972E969FAC2E9738
:105360002F969FAE2F9760968FAC609763968FAE07
:1053700063971BAA1F8E2C961FAE2C971EAA0C9407
:10538000B11D809102018823E9F0109210012F963F
:105390008FAC2F976B968FAE6B972E969FAC2E97F8
:1053A0002F969FAE2F9760968FAC609763968FAEC7
:1053B000639701E00F8F2C961FAE2C9711E01EAB68
:1053C0000C94B11D69968FAC6997811041C32F96DB
:1053D0009FAC2F976B969FAE6B972E968FAC2E97A8
:1053E0002F968FAE2F9760969FAC609763969FAE77
:1053F000639701E06A960FAF6A9711E01F8F2C96B2
:105400001FAE2C970EAB0C94B11D80910801882320
:1054100009F458C480910A01882309F43DC480919D
:105420000801811121C49CA8992009F482C08091AF
:105430000001882309F47DC0812C912CAA24AA9410
:105440008FE0B82E67968CAE9DAEAEAEBFAE6797BE
:105450008FEF9FE001E069960FAF69970C94A31D51
:10546000A8E24A2E512C612C712C812CB5E09B2E88
:10547000A12CB12C8B8A9C8AAD8ABE8A95018401AD
:105480000C94652200E00C94B921209106012111B1
:1054900029C0C0902801D0902901E0902A01F09005
:1054A0002B0106E2C016D104E104F104D8F05D9AA4
:1054B000AA966FAFAA97AB967FAFAB97AC968FAF1C
:1054C000AC97AD969FAFAD970E949215AD969FADEC
:1054D000AD97AC968FADAC97AB967FADAB97AA96D8
:1054E0006FADAA9710920B010C94A121809102013B
:1054F000882309F4B9C411E018AB0C942C1A0F5F7F
:1055000001CC0E947C1510920E0181E080930D0168
:1055100067961CAE1DAE1EAE1FAE67971F8E1B8E0C
:105520001C8E1D8E1E8E1A821B821C821D821EAA3C
:10553000A6C86B966FAD6B978FEF9FE00E94941299
:1055400062969FAF8EAF62970E943E162E968FACEA
:105550002E972F968FAE2F9703E00EAB0C94AE1DB7
:1055600080910B018111C9CE5D9881E080930B0180
:105570000E949215809108018111C4CE809107018B
:105580008111D3CE80911C0190911D01A0911E012B
:10559000B0911F018697A105B10508F4C6CE5E9AA9
:1055A0000E9487158091080110920C01882309F44C
:1055B000BECEA8CE802F88191EA9143011F00C94ED
:1055C000831E8F8C882011F40C94831E198280E036
:1055D0000C94061B60969FAC609763969FAE639792
:1055E0000EAB0C94AE1D6D967FAE6D9767961CAE9C
:1055F0001DAE1EAE1FAE679780E090E00C947F1D3D
:10560000823008F499C5023008F4B7C40B3010F0AA
:105610000C94F23327E068962FAF68978B8C9C8CA4
:10562000AD8CBE8C89288A288B2809F430C4A396B7
:105630000FAFA39701E06C960FAF6C9781E00C94CD
:10564000061B0E9423156B017C011A85123014F091
:105650000C94E21B8A809B80AC80BD808C149D04DE
:10566000AE04BF0410F00C94101CD501C401AF9619
:105670008EAC9FACAF97C81AD90AEA0AFB0A8C1500
:105680009D05AE05BF05B8F3AF969FAE8EAEAF9742
:105690000C94101C2CA12C3D08F003C4293C08F4E8
:1056A0002CC58A809B80AC80BD8077276B2D5A2DBE
:1056B000492D2401350101E0501A61087108A22F1B
:1056C000B0E09A01AB010E94E7384616570668061B
:1056D000790610F4C301B2012CA12095229F9001FC
:1056E000112400243695279507943695279507941D
:1056F000322F202D8901222717FD2095322F4016A9
:1057000051066206730610F40C946C344A805B8078
:105710006C807D80401A510A620A730ADC01CB0159
:1057200084159505A605B70510F4D301C2018B8B2E
:105730009C8BAD8BBE8B2C013D010C945A22B0E2A8
:105740008B2E912CA12CB12C80E094E0A0E0B0E055
:105750008B8B9C8BAD8BBE8B0C946A1811E02C96B6
:105760001FAF2C970C94DC2290E2C92ED12CE12C97
:10577000F12C812C24E0922EA12CB12C8B8A9C8AB6
:10578000AD8ABE8A950184010C94941B082D0130CA
:1057900009F45BC3023009F4AEC50A3108F060C7F2
:1057A0007727672D562D452DA82DB0E09A01AB0126
:1057B0000E94E738889C90011124215F3F4F00240C
:1057C000369527950794369527950794322F202DE7
:1057D0008901222717FD2095322F611545E07407B6
:1057E0008105910510F00C944D1960E075E080E0A2
:1057F00090E00C944D1980E00C94241B16E02E963A
:105800001FAF2E9760961FAE60970C94061B530136
:105810004201B694A794979487948B8A9C8AAD8A08
:10582000BE8A5301420126E0B694A79497948794C8
:105830002A95D1F78B899C89AD89BE890C946A1809
:1058400092E00C94C71E222309F443CD20910C0151
:1058500021113FCD5E9821E020930C01AC968FAFD3
:10586000AC97AD969FAFAD970E948715AC968FAD64
:10587000AC97AD969FADAD972CCD67961CAE1DAE87
:105880001EAE1FAE679780E090E001E02091080116
:10589000211111CD20910C0121110DCD5E9821E037
:1058A00020930C01AC968FAFAC97AD969FAFAD97A0
:1058B0000E948715AD969FADAD97AC968FADAC9716
:1058C00020910A012111FCCC2091060121111CC05C
:1058D000409128015091290160912A0170912B017A
:1058E000463251056105710578F05D9AAC968FAF2F
:1058F000AC97AD969FAFAD970E949215AD969FADB8
:10590000AD97AC968FADAC9710920B01D9CC679642
:105910008EAD9FAD6797811508E0900714F00C9449
:10592000173720910801211164C400E0FFCAB69422
:10593000A794979487948B8A9C8AAD8ABE8ACA80E2
:10594000DB80EC80FD80E6E0F694E794D794C79482
:10595000EA95D1F7950184010C94941B0EA90130AE
:1059600009F47EC5033009F460C68EA4A82DBB27B8
:10597000A7FDB0952B8D3C8D4D8D5E8D0E94F2382C
:1059800049015A01C814D904EA04FB04C8F0AF96CF
:105990008EAC9FACAF979B01AC018B8D9C8DAD8D78
:1059A000BE8DC81AD90AEA0AFB0AC816D906EA0641
:1059B000FB06B8F7AF969FAE8EAEAF97CA01B9019E
:1059C000C60ED71EE81EF91E0C94101C11E02C9672
:1059D0001FAF2C970C94D9248A848EA601E00AABC1
:1059E00011E02C961FAF2C970C946D1A91E09983BF
:1059F00032E0D4C803E087CA0E9423150B8D1C8DAA
:105A00002D8D3E8D000F111F221F331F6017710750
:105A10008207930708F0D2C58B859C8501969C87E9
:105A20008B874A825B826C827D820C94981AA8E2F2
:105A30008A2E912CA12CB12C00E015E020E030E062
:105A40000B8B1C8B2D8B3E8BD901C8010C946A18D3
:105A50000E9434156AA77BA78CA79DA72F969FACA1
:105A60002F976B969FAE6B972E968FAC2E972F9697
:105A70008FAE2F9760969FAC609763969FAE6397AB
:105A800001E06A960FAF6A9711E01F8F69961FAE0B
:105A900069972C961FAE2C970EAB0C94B11D80E02D
:105AA00090E8A0E0B0E088199909AA09BB095C0157
:105AB0006D019C01A60160E070E080E090E00CE0E8
:105AC0000E948439AB88BC88CD88DE8845015601A8
:105AD000C12CD12C76018EAA9FAAA8AEB9AECAAEAF
